{
  "_format": "hh-sol-artifact-1",
  "contractName": "FortunaGiveaway",
  "sourceName": "contracts/FortunaGiveaway.sol",
  "abi": [
    {
      "inputs": [
        {
          "internalType": "address",
          "name": "_vrfCoordinator",
          "type": "address"
        },
        {
          "internalType": "uint64",
          "name": "_subscriptionId",
          "type": "uint64"
        },
        {
          "internalType": "bytes32",
          "name": "_keyHash",
          "type": "bytes32"
        },
        {
          "internalType": "address",
          "name": "_feeRecipient",
          "type": "address"
        }
      ],
      "stateMutability": "nonpayable",
      "type": "constructor"
    },
    {
      "inputs": [
        {
          "internalType": "address",
          "name": "have",
          "type": "address"
        },
        {
          "internalType": "address",
          "name": "want",
          "type": "address"
        }
      ],
      "name": "OnlyCoordinatorCanFulfill",
      "type": "error"
    },
    {
      "inputs": [
        {
          "internalType": "address",
          "name": "owner",
          "type": "address"
        }
      ],
      "name": "OwnableInvalidOwner",
      "type": "error"
    },
    {
      "inputs": [
        {
          "internalType": "address",
          "name": "account",
          "type": "address"
        }
      ],
      "name": "OwnableUnauthorizedAccount",
      "type": "error"
    },
    {
      "inputs": [],
      "name": "ReentrancyGuardReentrantCall",
      "type": "error"
    },
    {
      "anonymous": false,
      "inputs": [
        {
          "indexed": true,
          "internalType": "uint256",
          "name": "causeId",
          "type": "uint256"
        },
        {
          "indexed": false,
          "internalType": "string",
          "name": "name",
          "type": "string"
        },
        {
          "indexed": false,
          "internalType": "address",
          "name": "beneficiary",
          "type": "address"
        },
        {
          "indexed": false,
          "internalType": "uint256",
          "name": "entryPrice",
          "type": "uint256"
        },
        {
          "indexed": false,
          "internalType": "uint256",
          "name": "drawTime",
          "type": "uint256"
        },
        {
          "indexed": false,
          "internalType": "enum FortunaGiveaway.PrizeType",
          "name": "prizeType",
          "type": "uint8"
        }
      ],
      "name": "CauseCreated",
      "type": "event"
    },
    {
      "anonymous": false,
      "inputs": [
        {
          "indexed": true,
          "internalType": "uint256",
          "name": "causeId",
          "type": "uint256"
        },
        {
          "indexed": false,
          "internalType": "address",
          "name": "beneficiary",
          "type": "address"
        },
        {
          "indexed": false,
          "internalType": "uint256",
          "name": "amount",
          "type": "uint256"
        }
      ],
      "name": "CharityPaid",
      "type": "event"
    },
    {
      "anonymous": false,
      "inputs": [
        {
          "indexed": true,
          "internalType": "uint256",
          "name": "causeId",
          "type": "uint256"
        },
        {
          "indexed": true,
          "internalType": "address",
          "name": "donor",
          "type": "address"
        },
        {
          "indexed": false,
          "internalType": "uint256",
          "name": "amount",
          "type": "uint256"
        },
        {
          "indexed": false,
          "internalType": "uint256",
          "name": "entries",
          "type": "uint256"
        }
      ],
      "name": "DonationReceived",
      "type": "event"
    },
    {
      "anonymous": false,
      "inputs": [
        {
          "indexed": true,
          "internalType": "uint256",
          "name": "causeId",
          "type": "uint256"
        },
        {
          "indexed": false,
          "internalType": "uint256",
          "name": "requestId",
          "type": "uint256"
        }
      ],
      "name": "DrawRequested",
      "type": "event"
    },
    {
      "anonymous": false,
      "inputs": [
        {
          "indexed": true,
          "internalType": "address",
          "name": "previousOwner",
          "type": "address"
        },
        {
          "indexed": true,
          "internalType": "address",
          "name": "newOwner",
          "type": "address"
        }
      ],
      "name": "OwnershipTransferred",
      "type": "event"
    },
    {
      "anonymous": false,
      "inputs": [
        {
          "indexed": true,
          "internalType": "uint256",
          "name": "causeId",
          "type": "uint256"
        },
        {
          "indexed": true,
          "internalType": "address",
          "name": "winner",
          "type": "address"
        },
        {
          "indexed": false,
          "internalType": "uint256",
          "name": "prizeAmount",
          "type": "uint256"
        }
      ],
      "name": "WinnerSelected",
      "type": "event"
    },
    {
      "inputs": [],
      "name": "causeCount",
      "outputs": [
        {
          "internalType": "uint256",
          "name": "",
          "type": "uint256"
        }
      ],
      "stateMutability": "view",
      "type": "function"
    },
    {
      "inputs": [
        {
          "internalType": "uint256",
          "name": "",
          "type": "uint256"
        }
      ],
      "name": "causes",
      "outputs": [
        {
          "internalType": "string",
          "name": "name",
          "type": "string"
        },
        {
          "internalType": "string",
          "name": "description",
          "type": "string"
        },
        {
          "internalType": "address payable",
          "name": "beneficiary",
          "type": "address"
        },
        {
          "internalType": "uint256",
          "name": "entryPrice",
          "type": "uint256"
        },
        {
          "internalType": "uint256",
          "name": "totalDonated",
          "type": "uint256"
        },
        {
          "internalType": "uint256",
          "name": "totalEntries",
          "type": "uint256"
        },
        {
          "internalType": "uint256",
          "name": "drawTime",
          "type": "uint256"
        },
        {
          "internalType": "bool",
          "name": "active",
          "type": "bool"
        },
        {
          "internalType": "bool",
          "name": "drawn",
          "type": "bool"
        },
        {
          "internalType": "address",
          "name": "winner",
          "type": "address"
        },
        {
          "internalType": "enum FortunaGiveaway.PrizeType",
          "name": "prizeType",
          "type": "uint8"
        },
        {
          "internalType": "uint256",
          "name": "prizeAmount",
          "type": "uint256"
        }
      ],
      "stateMutability": "view",
      "type": "function"
    },
    {
      "inputs": [
        {
          "internalType": "string",
          "name": "_name",
          "type": "string"
        },
        {
          "internalType": "string",
          "name": "_description",
          "type": "string"
        },
        {
          "internalType": "address payable",
          "name": "_beneficiary",
          "type": "address"
        },
        {
          "internalType": "uint256",
          "name": "_entryPrice",
          "type": "uint256"
        },
        {
          "internalType": "uint256",
          "name": "_drawTime",
          "type": "uint256"
        },
        {
          "internalType": "enum FortunaGiveaway.PrizeType",
          "name": "_prizeType",
          "type": "uint8"
        },
        {
          "internalType": "uint256",
          "name": "_prizeAmount",
          "type": "uint256"
        }
      ],
      "name": "createCause",
      "outputs": [],
      "stateMutability": "nonpayable",
      "type": "function"
    },
    {
      "inputs": [
        {
          "internalType": "uint256",
          "name": "causeId",
          "type": "uint256"
        }
      ],
      "name": "donate",
      "outputs": [],
      "stateMutability": "payable",
      "type": "function"
    },
    {
      "inputs": [],
      "name": "emergencyWithdraw",
      "outputs": [],
      "stateMutability": "nonpayable",
      "type": "function"
    },
    {
      "inputs": [
        {
          "internalType": "uint256",
          "name": "",
          "type": "uint256"
        },
        {
          "internalType": "uint256",
          "name": "",
          "type": "uint256"
        }
      ],
      "name": "entries",
      "outputs": [
        {
          "internalType": "address",
          "name": "",
          "type": "address"
        }
      ],
      "stateMutability": "view",
      "type": "function"
    },
    {
      "inputs": [],
      "name": "feeRecipient",
      "outputs": [
        {
          "internalType": "address",
          "name": "",
          "type": "address"
        }
      ],
      "stateMutability": "view",
      "type": "function"
    },
    {
      "inputs": [
        {
          "internalType": "uint256",
          "name": "causeId",
          "type": "uint256"
        }
      ],
      "name": "getCause",
      "outputs": [
        {
          "components": [
            {
              "internalType": "string",
              "name": "name",
              "type": "string"
            },
            {
              "internalType": "string",
              "name": "description",
              "type": "string"
            },
            {
              "internalType": "address payable",
              "name": "beneficiary",
              "type": "address"
            },
            {
              "internalType": "uint256",
              "name": "entryPrice",
              "type": "uint256"
            },
            {
              "internalType": "uint256",
              "name": "totalDonated",
              "type": "uint256"
            },
            {
              "internalType": "uint256",
              "name": "totalEntries",
              "type": "uint256"
            },
            {
              "internalType": "uint256",
              "name": "drawTime",
              "type": "uint256"
            },
            {
              "internalType": "bool",
              "name": "active",
              "type": "bool"
            },
            {
              "internalType": "bool",
              "name": "drawn",
              "type": "bool"
            },
            {
              "internalType": "address",
              "name": "winner",
              "type": "address"
            },
            {
              "internalType": "enum FortunaGiveaway.PrizeType",
              "name": "prizeType",
              "type": "uint8"
            },
            {
              "internalType": "uint256",
              "name": "prizeAmount",
              "type": "uint256"
            }
          ],
          "internalType": "struct FortunaGiveaway.Cause",
          "name": "",
          "type": "tuple"
        }
      ],
      "stateMutability": "view",
      "type": "function"
    },
    {
      "inputs": [
        {
          "internalType": "uint256",
          "name": "causeId",
          "type": "uint256"
        }
      ],
      "name": "getEntries",
      "outputs": [
        {
          "internalType": "address[]",
          "name": "",
          "type": "address[]"
        }
      ],
      "stateMutability": "view",
      "type": "function"
    },
    {
      "inputs": [],
      "name": "owner",
      "outputs": [
        {
          "internalType": "address",
          "name": "",
          "type": "address"
        }
      ],
      "stateMutability": "view",
      "type": "function"
    },
    {
      "inputs": [],
      "name": "platformFeePercent",
      "outputs": [
        {
          "internalType": "uint256",
          "name": "",
          "type": "uint256"
        }
      ],
      "stateMutability": "view",
      "type": "function"
    },
    {
      "inputs": [
        {
          "internalType": "uint256",
          "name": "requestId",
          "type": "uint256"
        },
        {
          "internalType": "uint256[]",
          "name": "randomWords",
          "type": "uint256[]"
        }
      ],
      "name": "rawFulfillRandomWords",
      "outputs": [],
      "stateMutability": "nonpayable",
      "type": "function"
    },
    {
      "inputs": [],
      "name": "renounceOwnership",
      "outputs": [],
      "stateMutability": "nonpayable",
      "type": "function"
    },
    {
      "inputs": [
        {
          "internalType": "uint256",
          "name": "causeId",
          "type": "uint256"
        }
      ],
      "name": "requestDraw",
      "outputs": [],
      "stateMutability": "nonpayable",
      "type": "function"
    },
    {
      "inputs": [
        {
          "internalType": "address",
          "name": "_newRecipient",
          "type": "address"
        }
      ],
      "name": "setFeeRecipient",
      "outputs": [],
      "stateMutability": "nonpayable",
      "type": "function"
    },
    {
      "inputs": [
        {
          "internalType": "uint256",
          "name": "_newFee",
          "type": "uint256"
        }
      ],
      "name": "setPlatformFee",
      "outputs": [],
      "stateMutability": "nonpayable",
      "type": "function"
    },
    {
      "inputs": [
        {
          "internalType": "uint256",
          "name": "causeId",
          "type": "uint256"
        }
      ],
      "name": "toggleCauseActive",
      "outputs": [],
      "stateMutability": "nonpayable",
      "type": "function"
    },
    {
      "inputs": [
        {
          "internalType": "address",
          "name": "newOwner",
          "type": "address"
        }
      ],
      "name": "transferOwnership",
      "outputs": [],
      "stateMutability": "nonpayable",
      "type": "function"
    }
  ],
  "bytecode": "0x6101006040526103e86001553480156200001857600080fd5b50604051620020c5380380620020c58339810160408190526200003b9162000147565b6001600160a01b03841660805233806200006f57604051631e4fbdf760e01b81526000600482015260240160405180910390fd5b6200007a81620000da565b5060017f9b779b17422d0df92223018b32b4d1fa46e071723d6817e2486d003becc55f00556001600160a01b0393841660a0526001600160401b039290921660c05260e052600280546001600160a01b03191691909216179055620001aa565b600080546001600160a01b038381166001600160a01b0319831681178455604051919092169283917f8be0079c531659141344cd1fd0a4f28419497f9722a3daafe3b4186f6b6457e09190a35050565b80516001600160a01b03811681146200014257600080fd5b919050565b600080600080608085870312156200015e57600080fd5b62000169856200012a565b60208601519094506001600160401b03811681146200018757600080fd5b604086015190935091506200019f606086016200012a565b905092959194509250565b60805160a05160c05160e051611eda620001eb6000396000610cbf01526000610cee01526000610d2f01526000818161070201526107440152611eda6000f3fe6080604052600436106101095760003560e01c80638fce8dd711610095578063db2e21bc11610064578063db2e21bc146102ec578063e74b981b14610301578063f14faf6f14610321578063f2fde38b14610334578063f53b74491461035457600080fd5b80638fce8dd71461025c5780639a79edec14610289578063d3549ebd1461029f578063d49e2f51146102cc57600080fd5b806346904840116100dc57806346904840146101ad578063538a942a146101cd578063715018a6146102055780638c639a851461021a5780638da5cb5b1461023e57600080fd5b80630e2ad5e11461010e57806312e8e2c31461013057806317b937e6146101505780631fe543e31461018d575b600080fd5b34801561011a57600080fd5b5061012e610129366004611808565b610374565b005b34801561013c57600080fd5b5061012e61014b3660046118b4565b610667565b34801561015c57600080fd5b5061017061016b3660046118cd565b6106bf565b6040516001600160a01b0390911681526020015b60405180910390f35b34801561019957600080fd5b5061012e6101a83660046118ef565b6106f7565b3480156101b957600080fd5b50600254610170906001600160a01b031681565b3480156101d957600080fd5b506101ed6101e83660046118b4565b61077f565b6040516101849c9b9a99989796959493929190611a1f565b34801561021157600080fd5b5061012e610905565b34801561022657600080fd5b5061023060015481565b604051908152602001610184565b34801561024a57600080fd5b506000546001600160a01b0316610170565b34801561026857600080fd5b5061027c6102773660046118b4565b610919565b6040516101849190611ab5565b34801561029557600080fd5b5061023060065481565b3480156102ab57600080fd5b506102bf6102ba3660046118b4565b610b10565b6040516101849190611ba2565b3480156102d857600080fd5b5061012e6102e73660046118b4565b610b7c565b3480156102f857600080fd5b5061012e610e21565b34801561030d57600080fd5b5061012e61031c366004611bef565b610ec0565b61012e61032f3660046118b4565b610f32565b34801561034057600080fd5b5061012e61034f366004611bef565b6111a9565b34801561036057600080fd5b5061012e61036f3660046118b4565b6111e4565b61037c61120f565b6001600160a01b0385166103cd5760405162461bcd60e51b8152602060048201526013602482015272496e76616c69642062656e656669636961727960681b60448201526064015b60405180910390fd5b6000841161041d5760405162461bcd60e51b815260206004820152601760248201527f456e747279207072696365206d757374206265203e203000000000000000000060448201526064016103c4565b42831161046c5760405162461bcd60e51b815260206004820152601860248201527f447261772074696d65206d75737420626520667574757265000000000000000060448201526064016103c4565b600680546000918261047d83611c29565b919050559050604051806101800160405280898152602001888152602001876001600160a01b03168152602001868152602001600081526020016000815260200185815260200160011515815260200160001515815260200160006001600160a01b031681526020018460028111156104f8576104f86119e7565b8152602090810184905260008381526003909152604090208151819061051e9082611ccb565b50602082015160018201906105339082611ccb565b506040820151600282810180546001600160a01b0319166001600160a01b03938416179055606084015160038401556080840151600484015560a0840151600584015560c0840151600684015560e08401516007840180546101008088015161012089015161ffff1990931694151561ff00191694909417931515029290921762010000600160b01b03198116620100009390951692909202938417815561014086015193909262010000600160b81b031990921660ff60b01b199091161790600160b01b90849081111561060a5761060a6119e7565b02179055506101608201518160080155905050807f8e08a1b7afa593ea19ed1841162e7e48af93b35e5a4d072b7468d1e4a4c8369f8988888888604051610655959493929190611d8b565b60405180910390a25050505050505050565b61066f61120f565b6107d08111156106ba5760405162461bcd60e51b815260206004820152601660248201527546656520746f6f206869676820286d6178203230252960501b60448201526064016103c4565b600155565b600460205281600052604060002081815481106106db57600080fd5b6000918252602090912001546001600160a01b03169150829050565b336001600160a01b037f000000000000000000000000000000000000000000000000000000000000000016146107715760405163073e64fd60e21b81523360048201526001600160a01b037f00000000000000000000000000000000000000000000000000000000000000001660248201526044016103c4565b61077b828261123c565b5050565b60036020526000908152604090208054819061079a90611c42565b80601f01602080910402602001604051908101604052809291908181526020018280546107c690611c42565b80156108135780601f106107e857610100808354040283529160200191610813565b820191906000526020600020905b8154815290600101906020018083116107f657829003601f168201915b50505050509080600101805461082890611c42565b80601f016020809104026020016040519081016040528092919081815260200182805461085490611c42565b80156108a15780601f10610876576101008083540402835291602001916108a1565b820191906000526020600020905b81548152906001019060200180831161088457829003601f168201915b50505060028401546003850154600486015460058701546006880154600789015460089099015497986001600160a01b03958616989497509295509093909260ff8084169361010081048216936201000082041692600160b01b909104909116908c565b61090d61120f565b6109176000611618565b565b6109216116b4565b600082815260036020526040908190208151610180810190925280548290829061094a90611c42565b80601f016020809104026020016040519081016040528092919081815260200182805461097690611c42565b80156109c35780601f10610998576101008083540402835291602001916109c3565b820191906000526020600020905b8154815290600101906020018083116109a657829003601f168201915b505050505081526020016001820180546109dc90611c42565b80601f0160208091040260200160405190810160405280929190818152602001828054610a0890611c42565b8015610a555780601f10610a2a57610100808354040283529160200191610a55565b820191906000526020600020905b815481529060010190602001808311610a3857829003601f168201915b50505091835250506002828101546001600160a01b039081166020840152600384015460408401526004840154606084015260058401546080840152600684015460a0840152600784015460ff808216151560c08601526101008083048216151560e08701526201000083049093169285019290925261012090930192600160b01b90041690811115610aea57610aea6119e7565b6002811115610afb57610afb6119e7565b81526020016008820154815250509050919050565b600081815260046020908152604091829020805483518184028101840190945280845260609392830182828015610b7057602002820191906000526020600020905b81546001600160a01b03168152600190910190602001808311610b52575b50505050509050919050565b610b84611668565b6000818152600360205260409020600781015460ff16610bd95760405162461bcd60e51b815260206004820152601060248201526f4361757365206e6f742061637469766560801b60448201526064016103c4565b6007810154610100900460ff1615610c235760405162461bcd60e51b815260206004820152600d60248201526c20b63932b0b23c90323930bbb760991b60448201526064016103c4565b8060060154421015610c6f5760405162461bcd60e51b8152602060048201526015602482015274111c985dc81d1a5b59481b9bdd081c995858da1959605a1b60448201526064016103c4565b6000816005015411610cb05760405162461bcd60e51b815260206004820152600a6024820152694e6f20656e747269657360b01b60448201526064016103c4565b6040516305d3b1d360e41b81527f0000000000000000000000000000000000000000000000000000000000000000600482015267ffffffffffffffff7f0000000000000000000000000000000000000000000000000000000000000000166024820152600360448201526207a1206064820152600160848201526000907f00000000000000000000000000000000000000000000000000000000000000006001600160a01b031690635d3b1d309060a4016020604051808303816000875af1158015610d80573d6000803e3d6000fd5b505050506040513d601f19601f82011682018060405250810190610da49190611dd4565b6000818152600560205260409081902085905560078401805461ff0019166101001790555190915083907fa87d18931b669b94d135986745ba30491257a77c255767cdd6796f697c1172f190610dfd9084815260200190565b60405180910390a25050610e1e6001600080516020611e8583398151915255565b50565b610e2961120f565b600080546040516001600160a01b039091169047908381818185875af1925050503d8060008114610e76576040519150601f19603f3d011682016040523d82523d6000602084013e610e7b565b606091505b5050905080610e1e5760405162461bcd60e51b815260206004820152601160248201527015da5d1a191c985dd85b0819985a5b1959607a1b60448201526064016103c4565b610ec861120f565b6001600160a01b038116610f105760405162461bcd60e51b815260206004820152600f60248201526e496e76616c6964206164647265737360881b60448201526064016103c4565b600280546001600160a01b0319166001600160a01b0392909216919091179055565b610f3a611668565b6000818152600360205260409020600781015460ff16610f8f5760405162461bcd60e51b815260206004820152601060248201526f4361757365206e6f742061637469766560801b60448201526064016103c4565b6007810154610100900460ff1615610fe25760405162461bcd60e51b8152602060048201526016602482015275111c985dc8185b1c9958591e4818dbdb5c1b195d195960521b60448201526064016103c4565b8060060154421061102d5760405162461bcd60e51b8152602060048201526015602482015274111bdb985d1a5bdb881c195c9a5bd908195b991959605a1b60448201526064016103c4565b80600301543410156110795760405162461bcd60e51b815260206004820152601560248201527424b739bab33334b1b4b2b73a103237b730ba34b7b760591b60448201526064016103c4565b600081600301543461108b9190611e03565b9050600081116110d25760405162461bcd60e51b8152602060048201526012602482015271111bdb985d1a5bdb881d1bdbc81cdb585b1b60721b60448201526064016103c4565b348260040160008282546110e69190611e17565b92505081905550808260050160008282546111019190611e17565b90915550600090505b818110156111525760008481526004602090815260408220805460018101825590835291200180546001600160a01b031916331790558061114a81611c29565b91505061110a565b506040805134815260208101839052339185917f3dbea1b4ce5f95137fdcac9b1d685825c3d70ace830df1ca5a181d3887add410910160405180910390a35050610e1e6001600080516020611e8583398151915255565b6111b161120f565b6001600160a01b0381166111db57604051631e4fbdf760e01b8152600060048201526024016103c4565b610e1e81611618565b6111ec61120f565b6000908152600360205260409020600701805460ff19811660ff90911615179055565b6000546001600160a01b031633146109175760405163118cdaa760e01b81523360048201526024016103c4565b600082815260056020818152604080842054808552600390925283209182015484519193918590839061127157611271611e30565b60200260200101516112839190611e46565b600084815260046020526040812080549293509091839081106112a8576112a8611e30565b6000918252602082200154600785018054620100006001600160a01b0390931692830262010000600160b01b03199091161790556001546004860154919350612710916112f59190611e5a565b6112ff9190611e03565b905060008185600401546113139190611e71565b9050600080806007880154600160b01b900460ff166002811115611339576113396119e7565b0361135c57611349600284611e03565b91506113558284611e71565b905061139b565b60016007880154600160b01b900460ff16600281111561137e5761137e6119e7565b0361139457600887015491506113558284611e71565b5060009050815b6002546040516000916001600160a01b03169086908381818185875af1925050503d80600081146113e8576040519150601f19603f3d011682016040523d82523d6000602084013e6113ed565b606091505b50509050806114345760405162461bcd60e51b8152602060048201526013602482015272119959481d1c985b9cd9995c8819985a5b1959606a1b60448201526064016103c4565b60028801546040516000916001600160a01b03169084908381818185875af1925050503d8060008114611483576040519150601f19603f3d011682016040523d82523d6000602084013e611488565b606091505b50509050806114d95760405162461bcd60e51b815260206004820152601760248201527f43686172697479207472616e73666572206661696c656400000000000000000060448201526064016103c4565b6002890154604080516001600160a01b039092168252602082018590528b917f730bbc1888cab1df0d55fe6d13c357cb53af9c00a5dc7b9357b5a1a660297b30910160405180910390a283156115c6576000876001600160a01b03168560405160006040518083038185875af1925050503d8060008114611576576040519150601f19603f3d011682016040523d82523d6000602084013e61157b565b606091505b50509050806115c45760405162461bcd60e51b8152602060048201526015602482015274141c9a5e99481d1c985b9cd9995c8819985a5b1959605a1b60448201526064016103c4565b505b866001600160a01b03168a7ffee5b04775e1cd2311ed22cd00f5d2403aff38ff6f71d6d393f51854ed6bc9868660405161160291815260200190565b60405180910390a3505050505050505050505050565b600080546001600160a01b038381166001600160a01b0319831681178455604051919092169283917f8be0079c531659141344cd1fd0a4f28419497f9722a3daafe3b4186f6b6457e09190a35050565b611670611684565b6002600080516020611e8583398151915255565b600080516020611e858339815191525460020361091757604051633ee5aeb560e01b815260040160405180910390fd5b604051806101800160405280606081526020016060815260200160006001600160a01b031681526020016000815260200160008152602001600081526020016000815260200160001515815260200160001515815260200160006001600160a01b031681526020016000600281111561172f5761172f6119e7565b8152602001600081525090565b634e487b7160e01b600052604160045260246000fd5b604051601f8201601f1916810167ffffffffffffffff8111828210171561177b5761177b61173c565b604052919050565b600082601f83011261179457600080fd5b813567ffffffffffffffff8111156117ae576117ae61173c565b6117c1601f8201601f1916602001611752565b8181528460208386010111156117d657600080fd5b816020850160208301376000918101602001919091529392505050565b6001600160a01b0381168114610e1e57600080fd5b600080600080600080600060e0888a03121561182357600080fd5b873567ffffffffffffffff8082111561183b57600080fd5b6118478b838c01611783565b985060208a013591508082111561185d57600080fd5b5061186a8a828b01611783565b965050604088013561187b816117f3565b9450606088013593506080880135925060a08801356003811061189d57600080fd5b8092505060c0880135905092959891949750929550565b6000602082840312156118c657600080fd5b5035919050565b600080604083850312156118e057600080fd5b50508035926020909101359150565b6000806040838503121561190257600080fd5b8235915060208084013567ffffffffffffffff8082111561192257600080fd5b818601915086601f83011261193657600080fd5b8135818111156119485761194861173c565b8060051b9150611959848301611752565b818152918301840191848101908984111561197357600080fd5b938501935b8385101561199157843582529385019390850190611978565b8096505050505050509250929050565b6000815180845260005b818110156119c7576020818501810151868301820152016119ab565b506000602082860101526020601f19601f83011685010191505092915050565b634e487b7160e01b600052602160045260246000fd5b60038110611a1b57634e487b7160e01b600052602160045260246000fd5b9052565b61018081526000611a3461018083018f6119a1565b8281036020840152611a46818f6119a1565b6001600160a01b038e81166040860152606085018e9052608085018d905260a085018c905260c085018b905289151560e086015288151561010086015287166101208501529150611a9d90506101408301856119fd565b826101608301529d9c50505050505050505050505050565b6020815260008251610180806020850152611ad46101a08501836119a1565b91506020850151601f19858403016040860152611af183826119a1565b9250506040850151611b0e60608601826001600160a01b03169052565b5060608501516080850152608085015160a085015260a085015160c085015260c085015160e085015260e0850151610100611b4c8187018315159052565b8601519050610120611b618682018315159052565b8601519050610140611b7d868201836001600160a01b03169052565b8601519050610160611b91868201836119fd565b959095015193019290925250919050565b6020808252825182820181905260009190848201906040850190845b81811015611be35783516001600160a01b031683529284019291840191600101611bbe565b50909695505050505050565b600060208284031215611c0157600080fd5b8135611c0c816117f3565b9392505050565b634e487b7160e01b600052601160045260246000fd5b600060018201611c3b57611c3b611c13565b5060010190565b600181811c90821680611c5657607f821691505b602082108103611c7657634e487b7160e01b600052602260045260246000fd5b50919050565b601f821115611cc657600081815260208120601f850160051c81016020861015611ca35750805b601f850160051c820191505b81811015611cc257828155600101611caf565b5050505b505050565b815167ffffffffffffffff811115611ce557611ce561173c565b611cf981611cf38454611c42565b84611c7c565b602080601f831160018114611d2e5760008415611d165750858301515b600019600386901b1c1916600185901b178555611cc2565b600085815260208120601f198616915b82811015611d5d57888601518255948401946001909101908401611d3e565b5085821015611d7b5787850151600019600388901b60f8161c191681555b5050505050600190811b01905550565b60a081526000611d9e60a08301886119a1565b6001600160a01b038716602084015260408301869052606083018590529050611dca60808301846119fd565b9695505050505050565b600060208284031215611de657600080fd5b5051919050565b634e487b7160e01b600052601260045260246000fd5b600082611e1257611e12611ded565b500490565b80820180821115611e2a57611e2a611c13565b92915050565b634e487b7160e01b600052603260045260246000fd5b600082611e5557611e55611ded565b500690565b8082028115828204841417611e2a57611e2a611c13565b81810381811115611e2a57611e2a611c1356fe9b779b17422d0df92223018b32b4d1fa46e071723d6817e2486d003becc55f00a2646970667358221220d1a153fb8412961ddc64a423dc952a3feabeea22b26d5ecc3e87f2c432bf3c9d64736f6c63430008140033",
  "linkReferences": {},
  "deployedLinkReferences": {}
}